:020000040800F2
:10000000C80B0020D10100087B3900086F300008C0
:10001000793900088507000815460008000000002F
:100020000000000000000000000000001D3F00086C
:10003000CB07000800000000973B00081F3F0008A6
:10004000EB010008EB010008EB010008AD3C0008E3
:10005000EB010008EB010008EB010008EB010008D0
:10006000EB010008E3070008EB010008890700081E
:10007000EB010008EB010008EB010008EB010008B0
:1000800095070008EB01000889060008EB0100084D
:10009000EB010008EB010008EB010008EB01000890
:1000A000EB010008EB010008EB010008EB01000880
:1000B000AD3F0008EB010008EB010008EB01000870
:1000C000EB010008EB010008EB010008EB01000860
:1000D000EB010008FD45000809460008EB01000897
:1000E000CD070008EB010008EB01000800F002F862
:1000F00000F05FF80AA090E8000C82448344AAF163
:100100000107DA4501D100F054F8AFF2090EBAE860
:100110000F0013F0010F18BFFB1A43F0010318473B
:1001200078530000985300000A444FF0000C10F878
:10013000013B13F0070408BF10F8014B1D1108BF65
:1001400010F8015B641E05D010F8016B641E01F805
:10015000016BF9D113F0080F1EBF10F8014BAD1C55
:100160000C1B09D16D1E58BF01F801CBFAD505E073
:1001700014F8016B01F8016B6D1EF9D59142D6D3CD
:10018000704700000023002400250026103A28BFF5
:1001900078C1FBD8520728BF30C148BF0B607047F9
:1001A000642900F07D80002070471FB51FBD10B589
:1001B00010BD00F02EFA1146FFF7F7FF04F010FB18
:1001C00000F04CFA03B4FFF7F2FF03BC00F054FA5E
:1001D0000948804709480047FEE7FEE7FEE7FEE7DB
:1001E000FEE7FEE7FEE7FEE7FEE7FEE70448054917
:1001F000054A064B70470000AB3F0008ED000008C1
:10020000C8050020C80B0020C8070020C807002030
:100210000FB41CB5074B06AA7B44694600900598AD
:1002200000F0ADF90020694600F0BCF91CBC5DF897
:1002300014FB0000890300002DE9F0410E4604463E
:10024000002020622046E168884730B3252805D089
:10025000D4E901219047206A401CF2E7E16820467A
:1002600000278847050018D0A5F14100192802D8B9
:1002700020354FF400673246294620462760FFF7B5
:100280008FFF40B1012804D0F61D26F0070608367E
:10029000D8E7361DD6E72846DAE7206ABDE8F081C0
:1002A0002DE9F0410646002410687529314616A54F
:1002B00010D0AFF30080002802DA404213A507E017
:1002C00031688A0701D512A502E0490704D511A5B6
:1002D000012401E0AFF3008000210A2206F1240787
:1002E00009E0B0FBF2FCB0FBF2F302FB1C00303083
:1002F00078541846491C0028F3D123462A46304634
:10030000BDE8F04100F0DCB8000000002D00000066
:100310002B0000002000000040EA0103024630B537
:100320009B0710D14FF0013400E008C208C91D1B23
:100330009D4315EAC41FF8D013F0FF0102F8011B1A
:100340000DD01B0AF8E711F8013B002B02F8013B26
:1003500005D011F8013B002B02F8013BF3D130BD71
:1003600010B5431C02E010F8011B71B18107FAD1EE
:100370004FF0013202C88C1A8C4314EAC211F9D032
:10038000C01A0A0603D0C01E10BDC01A10BD0A0450
:1003900001D0801E10BD0902FCD0401E10BD032AF2
:1003A00040F2308010F0030C00F0158011F8013B92
:1003B000BCF1020F624498BF11F801CB00F8013B79
:1003C00038BF11F8013BA2F1040298BF00F801CB3D
:1003D00038BF00F8013B11F0030300F0E880083A51
:1003E000C0F0088051F8043B083A51F804CBA0E86B
:1003F0000810F5E7121D5CBF51F8043B40F8043BC0
:10040000AFF30080D20724BF11F8013B11F801CBF4
:1004100048BF11F8012B24BF00F8013B00F801CBC5
:1004200048BF00F8012B70474FF000020429C0F0CC
:10043000128010F0030C00F01B80CCF1040CBCF116
:10044000020F18BF00F8012BA8BF20F8022BA1EB68
:100450000C0100F00DB85FEAC17C24BF00F8012B4D
:1004600000F8012B48BF00F8012B70474FF0000245
:1004700000B5134694469646203922BFA0E80C509A
:10048000A0E80C50B1F12001BFF4F7AF090728BF75
:10049000A0E80C5048BF0CC05DF804EB890028BFF1
:1004A00040F8042B08BF704748BF20F8022B11F01A
:1004B000804F18BF00F8012B704770477047704796
:1004C0002DE9F0470D4699469246044600F124086E
:1004D0000168880604D5E06921F01001216000E080
:1004E0000120A84201DD471B00E00027A1697A191D
:1004F00002EB0900081AA0612078C00602D4204649
:10050000AFF30080002608E0D4E901211AF80600C4
:100510009047206A401C761C20624E45F4DB207810
:10052000C0060AD52046AFF3008006E0D4E90121D9
:1005300030209047206A401C2062381EA7F1010736
:10054000F4DC07E0D4E9012118F805009047206A9F
:10055000401C2062281EA5F10105F3DC2046AFF304
:1005600000802078000602D50220BDE8F087012037
:10057000FBE7000001694A1C02610878704700B57A
:100580008FB0CDE901310021059105497944CDE9CC
:10059000031011466846FFF74FFE0FB000BD000084
:1005A000E5FFFFFF0A6802F8010B0A60704710B50B
:1005B000203AC0F00B80B1E81850203AA0E818505B
:1005C000B1E81850A0E81850BFF4F5AF5FEA027C1C
:1005D00024BFB1E81850A0E8185044BF18C918C08B
:1005E000BDE810405FEA827C24BF51F8043B40F82C
:1005F000043B08BF7047D20728BF31F8023B48BF11
:1006000011F8012B28BF20F8023B48BF00F8012B4E
:100610007047754600F02CF8AE4605006946534613
:1006200020F00700854618B020B5FFF7DFFDBDE8D4
:1006300020404FF000064FF000074FF000084FF049
:10064000000B21F00701AC46ACE8C009ACE8C009DA
:10065000ACE8C009ACE8C0098D46704710B5044647
:10066000AFF300802046BDE81040FFF7ABBD0000AF
:10067000004870476405002001491820ABBEFEE722
:100680002600020070470000014800F066B9000033
:100690007C02002070B5044600688168C943C90720
:1006A00017D1816821F00101816000F0ABFD0546A2
:1006B0000AE000BF00F0A6FD401B022804D9206814
:1006C0008068C043C00706D020688068C043C00768
:1006D000F0D0002070BDA06A40F01000A062E06A77
:1006E00040F00100E062012070BD0000F8B5002676
:1006F0000446009600688168C943C9072DD0816807
:1007000041F001018160164816490068B0FBF1F024
:1007100000E0401E00900028FBD100F073FD05466C
:1007200016E000BF00F06EFD401B022810D92068C3
:100730008068C043C0070BD0A06A40F01000A062E0
:10074000E06A40F00100E06284F824600120F8BD16
:1007500020688068C043C007E4D10020F8BD0000D5
:100760004402002040420F0010B5044800F046FA51
:10077000024800F0EFF80249088010BD7C0200201A
:1007800006000020FEE70000014800F00DBB00005D
:10079000AC020020014800F007BB0000100500205B
:1007A00030B590F840500124AC40C56B6C600468D3
:1007B00063604368102B036803D099600068C260CF
:1007C00030BD9A600068C16030BD704710B54FF40D
:1007D000805000F025FCBDE810404FF4005000F0C0
:1007E0001FBC082000F01CBC72B6FEE710B503F079
:1007F000CDFA04F0A3FA03F0C3FF0021102306A2F0
:10080000084603F059F910230021BDE81040044ABE
:100810003C2003F051B900004C55583A000000004C
:100820000800002070470000F8B50024009490F8FC
:1008300024202546012A12D0012280F824204A686B
:100840001F23072A0DD20668776B521E02EB820225
:1008500093409F430B6893401F43776319E0022046
:10086000F8BD06680D2A0AD2376BD21F02EB82024E
:1008700093409F430B6893401F43376309E0F76A37
:100880000D3A02EB820293409F430B6893401F4353
:10089000F7620A68072306680A2A0AD3F7680A3A41
:1008A00002EB420293409F438B6893401F43F760E3
:1008B00008E0376902EB420293409F438B68934004
:1008C0001F4337610A68102A01D0112A20D1124B28
:1008D00002689A4217D193681B0219D4936843F4B3
:1008E000000393600968102912D10C490C4A096869
:1008F000B1FBF2F101EB8101490000E0491E0091DA
:100900000029FBD104E0816A41F0200181620124C9
:1009100080F824502046F8BD002401404402002005
:1009200040420F000068084988420BD1074A084935
:10093000908850800988431A322B02DA081A32282C
:1009400000DB91807047000000240140000000207F
:10095000060000200068C06C704710B504460068AF
:100960004168890626D50168890723D5A16AC90689
:1009700003D4A16A41F40071A1628168C1F34241CC
:10098000072910D1217B71B9416821F02001416014
:10099000A06A20F48070A062A06AC00403D4A06A98
:1009A00040F00100A0622046FFF7BCFF21686FF015
:1009B000120008602068416809062ED501684907C1
:1009C0002BD5A16AC90603D4A16A41F40051A162E2
:1009D0008168C1F30231072909D04168490515D45E
:1009E0008168C1F34241072910D1217B71B9416867
:1009F00021F080014160A06A20F48050A062A06ACA
:100A0000C00503D4A06A40F00100A0622046FFF7B1
:100A100009FF21686FF00C000860206841684906F2
:100A20000DD50068C0070AD0A06A40F48030A062EB
:100A3000204600F093F821686FF00100086010BDB7
:100A40002DE9F0414FF0000704003D467ED0A06A3A
:100A5000002628B9E66284F82460204600F080F879
:100A60002046FFF717FEA16AC90600D420B1A06A8C
:100A700040F01000A06269E0A16A21F4885141F0C1
:100A80000201A1626268E169237B0A4347EA4301EC
:100A90000A43A1684FF48077B94209D0012907D0F1
:100AA0005FF0000194F814C0BCF1010F02D00AE01D
:100AB0003946F7E7F3B1A36A43F02003A362E36A80
:100AC00043F00103E3622368D3F804C02CF4694CBB
:100AD0004CEA010CC3F804C021688B68DFF870C0D1
:100AE00003EA0C0313438B60A168B9420BD00129C0
:100AF00009D00CE0DFF85CC0A3690CEB43330B4377
:100B000043F40061DFE7218A0D05A5F58015216812
:100B1000CB6A23F470032B43CB62216889680E4BA8
:100B20001940914208D1E662A16A21F0020141F028
:100B30000101A162BDE8F081A06A20F0020040F04E
:100B40001000A062E06A40F00100E0620120F1E7DD
:100B5000FDF7E1FF00E0FFFFFE0E1FFF7047000002
:100B600070B586B00025064600950195029503955F
:100B700000681D49884234D11C49886940F40070DE
:100B80008861886900F400700490886940F004006E
:100B900088618869694600F0040004900320009091
:100BA0000190134800F048FA134C1248C4E90005BC
:100BB0008020C4E90250400020618000C4E905059E
:100BC0002046E56100F09AF908B1FFF70DFE3462A6
:100BD000002211461220666200F0C2FE122000F0D0
:100BE000B1FE06B070BD00000024014000100240BC
:100BF0000008014008000240AC02002070B5044625
:100C000090F8240001280DD0012084F8240020460B
:100C1000FFF76CFD02004FF0000005D084F82400BF
:100C2000104670BD022070BDA16A40F60163994371
:100C300041F48071A162224D23682249AB4218D150
:100C40000E6816F4702F14D0A66A46F48016A662B9
:100C50000E68760505D5A66A26F4005646F4805639
:100C6000A662A66AF6040AD5E66A26F00606E662D9
:100C700006E0A66A26F48016A6625E68E9E7E062EE
:100C800084F824006FF0020018602068436843F085
:100C90002003436020688368C3F34243072B05D1D8
:100CA000A84208D1096811F4702F04D0816841F47A
:100CB00080118160B4E7816841F4A001F9E7000088
:100CC000002801400424014010B590F821100022B2
:100CD000022905D00421816380F82020012010BD65
:100CE00001680B6823F00E030B6001680B6823F0AA
:100CF00001030B6090F84030C46B012101FA03F34B
:100D0000636080F8211080F82020104610BD00009C
:100D100010B590F821100024022903D0042181632A
:100D200001243DE001680A6822F00E020A600168B1
:100D30000A6822F001020A601A4A0168914201D150
:100D4000012121E0174A1432914201D110211BE008
:100D5000144A2832914201D1891515E0114A3C32DA
:100D6000914201D189140FE00E4A5032914202D1D2
:100D70004FF4803108E00B4A6432914202D14FF4C3
:100D8000801101E04FF08071064A083A516001215C
:100D900080F82110002180F82010416B01B18847B4
:100DA000204610BD080002402DE9F05FC16B0C68C1
:100DB00001680B68D0F840C0042202FA0CF2494DD9
:100DC000DFF824A1494E4A4FDFF828B1DFF828E1C7
:100DD00022422CD05A072AD50A68920603D40A6800
:100DE00022F004020A600168A94201D1042219E03C
:100DF000514501D1402215E0B14202D14FF4806249
:100E000010E0B94202D14FF480420BE0594502D1C3
:100E10004FF4802206E0714502D14FF4800201E0D8
:100E20004FF080622F4908394A60C16A3BE04FF0B9
:100E3000020808FA0CF818EA040F4FF000094FF006
:100E4000010235D05FEA837832D50B689B0605D462
:100E50000B6823F00A030B6080F821200168A94287
:100E600001D1022219E0514501D1202215E0B14201
:100E700002D14FF4007210E0B94202D14FF4005297
:100E80000BE0594502D14FF4003206E0714502D122
:100E90004FF4001201E04FF00072124908394A6025
:100EA00080F82090816A00291AD0BDE8F05F0847D9
:100EB000082505FA0CF5254212D01B0710D50B6842
:100EC00023F00E030B6090F84010C36B02FA01F19F
:100ED0005960826380F8212080F82090016BE2E75E
:100EE000BDE8F09F080002401C00024030000240B4
:100EF00044000240580002406C00024030B528B364
:100F000008C8134914221944B1FBF2F18900C163E6
:100F100010498163022141771A6843F6F0718A43D0
:100F2000D0E900142143D0E902452C432143046950
:100F300021434469214384692143114319600021FD
:100F40004163012242770177084630BD012030BD60
:100F5000F8FFFDBF0000024070B5044690F8200085
:100F6000002501280CD0012084F8200094F821608D
:100F70000020012E06D084F820000225284670BDEE
:100F8000022070BD022684F82160A06320680668F4
:100F900026F0010606602046FFF702FCE06A002802
:100FA0002068016802D041F00E0106E021F0040142
:100FB00001602068016841F00A0101602068016851
:100FC00041F001010160D9E770B5044600F01AF95B
:100FD0000546601C02D004480078044400F012F971
:100FE000401BA042FAD370BD38020020002201232A
:100FF0000A49B0F5805F07D0B0F5005F03D14878AB
:10100000012808D04B7070470878012801D00B7078
:1010100070470A7070474A70704700000000002057
:10102000044910B50A68024202D00860FFF7DEFFEB
:1010300010BD0000140401402DE9F84FDFF89C9129
:10104000002409F1040A0AF1040B23460F270BF1CF
:10105000040EBBE00125A5402A40AA4276D1DFF864
:1010600080C14E68A6EB0C0866452BD00DDC032E24
:1010700034D005DC36B3012E19D0022E2FD11BE05F
:10108000112E16D0122E2AD119E0B8F5881F19D0CA
:1010900006DCB8F5803F15D0B8F5801F1FD111E0F0
:1010A000B8F5001F0ED0B8F5041F18D10AE0CB68C0
:1010B00015E0CB681B1D12E0CB6808330FE0CB684E
:1010C0000C330CE08B682BB1012B4FF0080303D0DD
:1010D000456104E0042302E0056100E00023FF2AEB
:1010E00001D8064601E000F104064FEA840501D963
:1010F000A5F12005D6F8008007FA05FC28EA0C08BF
:1011000003FA05F548EA0508C6F800804D68ED00C9
:101110005BD5344DAE6946F00106AE61AD6924F091
:10112000030605F0010500952F4D06EB050CDCF8D4
:101130000850A607360F07FA06F825EA0805DFF873
:10114000AC80404503D14FF0000810E03DE0DFF8EF
:10115000A080404502D14FF0010808E0DFF89480FC
:10116000404502D14FF0020801E04FF0030808FAB1
:1011700006F848EA0508CCF808804D68D9F8006000
:10118000ED034D4601D5164300E096432E604D68B1
:10119000DAF80060AD03554601D5164300E09643EA
:1011A0002E604D68DBF80060ED025D4601D5164308
:1011B00000E096432E604D68DEF80060AD02754693
:1011C00001D5164300E096432E60641C0A6832FA8B
:1011D00004F57FF43FAFBDE8F88F00000004014044
:1011E0000000111000100240000001400008014002
:1011F000000C0140001001400AB101617047090470
:10120000FBE70000014880687047000038020020BA
:1012100070B5040025D094F83D00002520B984F86D
:101220003C50204600F008FB242084F83D00206854
:10123000016821F0010101602068016841F400416A
:1012400001602068016821F40041016000F030FD78
:101250004D4A6168914201D84C4900E04C498842AE
:1012600001D2012070BD4B492368B0FBF1F15E68EB
:1012700026F03F060E435E606368934206D94FF442
:10128000967359434FF47A73B1FBF3F12368491C09
:101290001E6A26F03F06314319626168914210D8F8
:1012A0004900401EB0FBF1F2521CC2F30B02042AAB
:1012B00001D2042022E0B0FBF1F0401CC0F30B008F
:1012C0001CE0A268F2B301EBC10303EB0116431E5D
:1012D000B3FBF6F35B1C43F480431B0549D092B388
:1012E00001EBC10202EB0111401EB0FBF1F0401C0A
:1012F000C0F30B0040F4804040F400402168CA690C
:101300004CF6FF739A431043C861D4E907100143B8
:101310002068026822F0C00211430160D4E9030191
:1013200001432068826848F2FF339A431143816089
:10133000D4E9050108432168CA6822F0FF0210437E
:10134000C86001E00EE016E02068016841F001018C
:1013500001602564202084F83D00256384F83E5018
:10136000002070BD01EB4106431EB3FBF6F35B1C8E
:10137000B3E70120C2E701EB4101401EB0FBF1F0F1
:10138000401CC0F30B00B7E7A086010080841E005C
:1013900000093D0040420F002DE9F84F0025DDF81F
:1013A0002890984617468A4604460095FFF72AFF7C
:1013B000064694F83D0020287AD11923012283495A
:1013C0002046009601F0AAFF0028F5D194F83C00D1
:1013D00001286DD0012084F83C0020680168C9070D
:1013E00003D1016841F0010101602068016821F426
:1013F00000610160222084F83D00102084F83E0046
:1014000025646762A4F82A80608D20857048E062B8
:1014100033464A465146204601F042FE00287DD11F
:10142000208DDFF8B081202768B1012814D0022870
:10143000206801681ED041F4806101602068416924
:1014400080690090B5E02068416981690091016878
:1014500041F400710160ACE02068016821F4806112
:10146000016072B62068416981690091016841F4A8
:1014700000710AE041F40061016072B620684169C0
:1014800081690091016821F48061016062B690E099
:10149000032868D801280CD002284B464FF00002E0
:1014A0004146204600960FD001F038FFB0BB10E057
:1014B0008AE032464946204601F0AFFF70BB206803
:1014C0000069616A08706BE001F028FF30BB72B6FA
:1014D00034E02068016821F48061016072B6206800
:1014E0000069616A0870606A401C6062208D401E5D
:1014F0002085608D401E6085374846F2A81100683F
:10150000B0FBF1F0C0EBC00000EB80000090401E8B
:10151000009008D020684069C04300E029E04007FF
:101520000CD50098F3E744F8305F6773A573206922
:1015300040F02000206162B625731AE0206801683F
:1015400041F40071016020680069616A0870606A96
:10155000401C6062218D491E2185618D491E618577
:1015600062B621681AE032464946204601F055FF2E
:1015700010B10120BDE8F88F20680069616A087029
:10158000606A401C6062218D491E2185618D491E63
:10159000618521684A69D24352070AD409690170FA
:1015A000606A401C6062208D401E2085608D401E58
:1015B0006085208D00287FF46BAF84F83D7084F83F
:1015C0003E5084F83C50D5E70220D3E702001000DB
:1015D0000000FFFF04000100440200202DE9F84F45
:1015E0001F4690468A460446DDF82890FFF70AFE1B
:1015F000054694F83D0020287FD119230122404957
:101600002046009501F08AFE002876D194F83C002F
:10161000012872D0012084F83C0020680168C907C5
:1016200003D1016841F0010101602068016821F4E3
:1016300000610160212084F83D00102084F83E0004
:1016400000262664C4F824806785608D20852D4897
:10165000E0622B464A465146204601F097FD90B97C
:10166000206841698069009036E02A464946204654
:1016700001F006FF50B1206C042804D120680168F5
:1016800041F4007101600120BDE8F88F606A2168B3
:1016900000780861606A401C6062618D491E618546
:1016A000218D491E89B2218522685369DB435B077E
:1016B0000BD451B100781061606A401C6062608D8B
:1016C000401E6085208D401E20852A4649462046C2
:1016D00001F0FEFD0028CED1208D0028C5D154F8A0
:1016E0003D0B016841F400710160202004F81E09DF
:1016F000E67766770020C7E7FFE70220C4E700002F
:10170000020010000000FFFF2DE9FF4F83B09A4652
:10171000DDE9119793460446DDF84080FFF772FD3E
:10172000054694F83D0020287FD119230122404925
:101730002046009501F0F2FD002876D194F83C0097
:10174000012872D0012084F83C0020680168C90794
:1017500003D1016841F0010101602068016821F4B2
:1017600000610160212084F83D00402084F83E00A3
:1017700000262664C4F82480A4F82A90608D208571
:101780002C48E062CDE9007553465A46204604993C
:1017900001F04AFD70B930E02A463946204601F092
:1017A0006FFE58B1206C042804D12068016841F410
:1017B00000710160012007B0BDE8F08F606A216808
:1017C00000780861606A401C6062218D491E89B200
:1017D0002185628D521E628522685369DB435B0757
:1017E0000BD469B100781061606A401C6062208D82
:1017F000401E2085608D401E6085208D0028CBD145
:101800002A463946204601F063FD0028CAD154F823
:101810003D0B016841F400710160202004F81E09AD
:10182000E67766770020C6E7FFE70220C3E70000FF
:10183000020010000000FFFF10B586B000210091EB
:1018400001910291039100680F4988421AD10F4C0F
:10185000A06940F00800A061A069694600F0080096
:101860000490C020009012200190032003900848AB
:10187000FFF7E2FBE06940F40010E061E06900F48A
:101880000010049006B010BD00540040001002404B
:10189000000C014002488168027811448160704761
:1018A00038020020074810B5016841F010010160BE
:1018B000032000F075F80F2000F006F800F024F87F
:1018C000002010BD0020024070B50D4D04464FF4BD
:1018D0007A712878B1FBF0F00A490968B1FBF0F0A1
:1018E00000F0B9FE48B9102C07D200222146501E44
:1018F00000F036F800206C6070BD012070BD000063
:1019000038020020440200200C4808B5816941F0EB
:1019100001018161816901F001010091C16941F01A
:101920008051C161C06900F0805000900448416856
:1019300021F0E06141F00071416008BD00100240FB
:1019400000000140002809DB00F01F020121914046
:101950004009800000F1E020C0F80011704700004D
:10196000F0B40E4B1B680C46C3F30223C3F107050A
:10197000042D00D90425191D072901D2002300E0F8
:10198000DB1E012606FA05F1491E214099409E40C2
:10199000761E16403143F0BC02F0BABE0CED00E0FA
:1019A000064900F0070208684FF6FF03184040EAB6
:1019B0000220034A10430860704700000CED00E06D
:1019C0000000FA05014901200862704700000E423C
:1019D00010B529A401461DCC86B08DE81D002AA0B3
:1019E0002A4C006804900020012923D002293AD013
:1019F00010291DD161682268D20119D5C1F3834233
:101A0000C9031DF8020009D5616804AAC1F3404169
:101A1000515C1F4AB2FBF1F1484301E01D494843C4
:101A20006168490204D440005FF00301B0FBF1F0AB
:101A300006B010BD226AC2F30121012903D1920729
:101A400001D5C803F4E7022905D1626A920702D5DD
:101A500049F64040ECE70329EAD121688903E7D53C
:101A60004FF22440E4E700F033F96168C1F38131BB
:101A7000491C4900DAE700000203040506070809CB
:101A80000A0B0C0D0E0F1010010200000010024096
:101A900000127A0000093D002DE9F8430546007860
:101AA000354CC00754D0E0690026C00008D4E06976
:101AB00040F08050E061E069012600F08050009025
:101AC0002E480168C90512D40168804641F480712E
:101AD0000160FFF797FB074605E000BFFFF792FBA9
:101AE000C01B642823D8D8F80000C005F6D5206AAA
:101AF00010F4407021D0A98801F4407181421CD0BB
:101B0000206A1F49012220F440700A6000220A6006
:101B10002062C00711D0FFF775FB074641F28838F5
:101B200008E000BFFFF76EFBC11B414502D903204F
:101B3000BDE8F883206A8007F4D5206A696820F43C
:101B40004070084320621EB1E06920F08050E061DF
:101B50002878800705D56068A96820F440400843CC
:101B600060602878C00605D56068E96820F48000C8
:101B7000084360600020DBE7001002400070004076
:101B8000400442422DE9F0470F46050061D0434E24
:101B9000306800F00700B84209D2306820F0070032
:101BA00038433060306800F00700B84251D12868EF
:101BB0003B4C810712D5400703D5606840F4E060D4
:101BC00060602878000703D5606840F4605060606A
:101BD0006068A96820F0F000084360602878C007BA
:101BE00028D06868012810D02168022810D0890701
:101BF00000292EDA616821F0030101436160FFF7DB
:101C000001FB804641F288390DE021688903EFE746
:101C10008901EDE7FFF7F6FAA0EB0801494502D983
:101C20000320BDE8F0876068696800F00C00B0EB45
:101C3000810FEFD1306800F00700B8420BD930684F
:101C400020F0070038433060306800F00700B842E9
:101C500001D00120E5E72878400705D56068E968EC
:101C600020F4E060084360602878000706D56068CB
:101C7000296920F4605040EAC100606000F038F843
:101C80006168084AC1F30311515CC8400649086005
:101C900006480068FFF718FE0020C2E70020024057
:101CA0000010024080540008440200203C02002042
:101CB0000448054900684968044AC1F30221515C9F
:101CC000C8407047440200200010024090540008B1
:101CD0000448054900684968044AC1F3C221515CBF
:101CE000C840704744020020001002409054000891
:101CF00012A185B00FC98DE80F0014A0144A006826
:101D000004905168134801F00C03042B10D0082BE9
:101D10000ED1C1F38343C9031DF803000AD55168EE
:101D200004AAC1F34041515C0A4A5043B0FBF1F0B0
:101D300005B0704708494843FAE70000020304056C
:101D4000060708090A0B0C0D0E0F10100102000007
:101D50000010024000127A0000093D002DE9F84F02
:101D6000040070D02078C04DC00749D06868C0F327
:101D70008100012807D06868C0F38100022809D1DA
:101D80006868C00306D52868800339D560680028D4
:101D9000E7D035E06068B0F5803F0BD010B1B0F50A
:101DA000A02F11D0286820F480302860286820F403
:101DB000802002E0286840F480302860606890B19C
:101DC000FFF720FA06460AE0286840F480202860E1
:101DD000F0E700BFFFF716FA801B642873D8286865
:101DE0008003F7D50CE0FFF70DFA064605E000BFCB
:101DF000FFF708FA801B6428F0D828688003F7D41E
:101E000020789A4E80074FF001094FF0000839D52D
:101E1000686810F00C0F07D06868C0F381000228D2
:101E200009D16868C00306D42868800714D52069E2
:101E3000012808D110E02069B0B1C6F80090FFF782
:101E4000E1F9074605E00AE1FFF7DCF9C01B0228CB
:101E5000C4D828688007F7D52868616920F0F800A1
:101E600040EAC10028600DE0C6F80080FFF7CAF91B
:101E7000074604E0FFF7C6F9C01B022823D82868EC
:101E80008007F7D4207800072CD57948A169D9B10B
:101E9000C0F80090FFF7B6F9074604E0FFF7B2F983
:101EA000C01B02280FD8686A8007F7D571484FF425
:101EB000FA510068B0FBF1F0009000BF0098411E9D
:101EC0000091FAD20EE080E0C0F80080FFF79AF9A6
:101ED000074604E0FFF796F9C01B022875D8686A28
:101EE0008007F7D42078400760D5E8690027C00054
:101EF00008D4E86940F08050E861E869012700F003
:101F0000805000905C480168C90513D4016883467D
:101F100041F480710160FFF775F9824606E000BF69
:101F2000FFF770F9A0EB0A0064284ED8DBF8000038
:101F3000C005F5D5E06801280AD008B1052813D0FE
:101F4000286A20F001002862286A20F0040002E0DC
:101F5000286A40F001002862E06841F2883B98B1AD
:101F6000FFF750F982460BE0286A40F0040028622F
:101F7000EEE700BFFFF746F9A0EB0A0159455AD832
:101F8000286A8007F6D50CE0FFF73CF9824605E0A9
:101F9000FFF738F9A0EB0A0159454CD8286A8007A9
:101FA000F6D41FB1E86920F08050E861E06988B399
:101FB0006968C1F38101022944D00228C6F8608013
:101FC00004D0FFF71FF9044638E034E0FFF71AF9B0
:101FD000074604E0FFF716F9C01B02282BD8286833
:101FE0008001F7D4206AB0F5803F05D16868A16808
:101FF00020F4003008436860D4E9080108436968A8
:1020000021F4741108436860C6F86090FFF7FAF88D
:10201000044606E025E000BFFFF7F4F8001B0228A5
:1020200009D828688001F7D51BE000BFFFF7EAF860
:10203000001B022802D90320BDE8F88F2868800120
:10204000F4D40EE00128F7D06868226A00F48031E9
:10205000914204D1616A00F47010884201D00120DD
:10206000EAE70020E8E700000010024000004242DA
:1020700080044242440200200070004070477047D4
:1020800010B5044600680168C90717D04168C90740
:1020900014D040684007204607D5FFF7F0FF2168BD
:1020A0006FF004004860042002E0FFF7E7FF012022
:1020B00060742068416821F00101416010BD00009A
:1020C00070B5040003D0607C002610B105E001204B
:1020D00070BD2674204600F043F80220607420464C
:1020E00000F01AF9042578BB204601F0A8FD58BB82
:1020F0002068416821F007014160A06820B11748BD
:10210000016821F0010101601448001F0168A26804
:1021100021F46071114301606068411C04D1012009
:10212000FFF756FC80B1401E21688A6822F00F023A
:1021300042EA10428A602168CA6860F30F02CA60EE
:10214000204601F097FD08B16574C0E7E6730120F1
:102150006073A0736074002070BD0000306C00409C
:1021600008B500680D49884217D1FFF72BFC0C48D1
:10217000C16941F00061C161C0690A4900F00060B5
:10218000009001200860002211460320FFF7E8FBC1
:10219000BDE808400320FFF7D5BB08BD002800407C
:1021A000001002403C0442422DE9F0410D4604007B
:1021B0003BD0C5B3207C01283AD04FF0010884F809
:1021C000108002206074E87872B301F02FFDE07394
:1021D000687801F02BFD6073A87801F027FDA073EB
:1021E000C2B2617BE07B01F07EFD20732870204647
:1021F00001F069FD4FF46161B0FBF1F10025182990
:102200002DD91822B1FBF2F1A1EB011101EB410133
:10221000C1EB011100EBC1163146204601F0A2FDD1
:102220000427C8B90BE000E004E00120BDE8F0811C
:102230000220FBE7E07368786073A878CFE7204658
:1022400001F03AFD411C0AD0B04208D206490144CF
:10225000204601F073FD10B167742574E5E784F83A
:10226000118025740020E1E7805101002DE9F04143
:102270000D46040024D01DB3207C012823D04FF04C
:10228000010884F81080022060742878EAB101F017
:10229000CDFC4FF4616100FB01F6687801F0C6FCEB
:1022A000C0EB001006EB8006A87801F0BFFC3518E3
:1022B0002946204601F056FD0026042710BB0FE0FA
:1022C0000120BDE8F0810220FBE74FF46161484343
:1022D0006978C1EB011100EB8100A9784518E7E7A7
:1022E0002068416821F005014160204601F0E4FCCE
:1022F000411C0AD0A84208D206490144204601F0F8
:102300001DFD10B167742674DAE784F81180267415
:102310000020D6E78051010070B504000AD0206883
:10232000416821F008014160FEF76CFF05464FF45B
:102330007A7608E0012070BDFEF764FF401BB042D2
:1023400001D9032070BD206840680007F4D5002043
:1023500070BD70B5040009D0606A002540B12561E8
:102360006561A56294F8510040B10CE0012070BD98
:102370006068B0F5827FF4D0E561F2E784F85050F0
:10238000204600F03FF8022084F8510020680168E0
:1023900021F040010160A088218900F4827001F4DD
:1023A00004410843A18901F400610843217C01F044
:1023B00002010843217D01F001010843218B01F452
:1023C00000710843217F01F03801084394F8201080
:1023D00001F080010843218D01F400510843216878
:1023E0000860A069042101EA104021684860206863
:1023F000C16921F40061C1616565012084F8510063
:10240000002070BD30B585B0002400940194029482
:10241000039400681449884223D11448816941F427
:1024200080518161816901F480510491816941F099
:102430000401816180690E4D00F004000490A02029
:102440000090022001900320039069462846FEF781
:10245000F3FD4020CDE90004694628460294FEF7CA
:10246000EBFD05B030BD000000300140001002401F
:10247000000801402DE9F84F044690F8500000276D
:102480000A9E1D4692468B464FF0010901280ED048
:10249000012084F85000FEF7B5FE804694F8510004
:1024A000616801280CD0B1F5827F07D102E00220DB
:1024B000BDE8F88FA16809B9042801D00227C2E05D
:1024C000BBF1000F27D0BAF1000F24D01DB394F850
:1024D0005100042802D0052084F8510000206065D6
:1024E000C4F838A0E587A587C4F830B0E586A5868E
:1024F0002064606420680168490603D4016841F0E3
:1025000040010160E068B0F5006F606805D0E8B395
:10251000012D46D07FE0012795E008B1012D39D18A
:10252000206B21680088C860206B801C2063E08ECF
:10253000401EE0862EE02068816889070FD5E18E75
:1025400069B1B9F1010F0AD1216B0988C160206B13
:10255000801C2063E08E401EE0864FF0000920685A
:102560008168C9070CD0E18F51B1C068A16B0880A8
:10257000A06B801CA063E08F401EE0874FF0010934
:10258000FEF740FEA0EB0800B04200E009E001D3F6
:10259000701C50D1E08E0028CDD1E08F0028CAD128
:1025A0003FE0206B216800780873206B401C20639B
:1025B000E08E401EE0862EE02068816889070FD5F6
:1025C000E18E69B1B9F1010F0AD1216B097801736C
:1025D000206B401C2063E08E401EE0864FF0000917
:1025E00020688168C9070CD0E18F51B1C068A16B28
:1025F0000870A06B401CA063E08F401EE0874FF086
:102600000109FEF7FFFDA0EB0800B04202D3701CE9
:1026100001D010E07EB1E08E0028CDD1E08F0028FF
:10262000CAD142463146204601F00BFC28B10127B1
:102630002020606507E0032705E0A06818B920683E
:10264000C16880680090012084F85100002084F85F
:10265000500038462CE710B5401EB0F1807F01D302
:10266000012010BD4FF0E02460610F21601702F0DF
:102670004FF80020A06107202061002010BD7047A6
:10268000704710B590F83C20012A22D0012280F832
:102690003C20CA688C6822F4407222434C6822F4C1
:1026A000806222430C6822F4006222430C6922F407
:1026B000805222434C6922F400522243C96900230C
:1026C00022F480420A4301684A6480F83C300020CA
:1026D00010BD022010BD000070B590F83C20012A0A
:1026E00023D0012480F83C40022280F83D2003687A
:1026F0005A689D6822F070060A6832435A600C4B93
:1027000002689A4205D0B2F1804F02D0094B9A423A
:1027100004D1496825F080031943916080F83D4059
:10272000002180F83C10084670BD022070BD0000FA
:10273000002C01400004004010B5040003D094F8C0
:102740003D0010B107E0012010BD002084F83C00DE
:10275000204600F01FF8022084F83D00211D20686B
:1027600001F02AFC012084F8460084F83E0084F839
:102770003F0084F8400084F8410084F8420084F867
:10278000430084F8440084F8450084F83D000020AC
:1027900010BD000008B5174A01681748914207D1DB
:1027A000816941F400618161806900F400600CE09E
:1027B000B1F1804F0BD0114A914207D1C16941F06C
:1027C0000201C161C06900F00200009008BDC1694A
:1027D00041F00101C161C069002200F001000090D8
:1027E00011461C20FFF7BCF8BDE808401C20FFF78D
:1027F000A9B80000002C0140001002400004004075
:1028000070B5044690F83C00012817D0012584F8E3
:102810003C50022084F83D002068826822F0770254
:1028200022F47F4282600868502830D00DDC2028D6
:102830004DD005DC98B310283BD148E0022070BD94
:10284000302844D0402834D139E0602828D070287E
:1028500006D0B0F5805F2CD0B0F5005F29D10AE03A
:10286000CB68D1E90121206801F0E1FB2068816893
:1028700041F0770109E0CB68D1E90121206801F03E
:10288000D6FB2068816841F48041816011E0CA680C
:102890004968206801F080FC5021206807E016E0BC
:1028A000CA684968206801F088FC6021206801F04E
:1028B000C8FB84F83D50002084F83C0070BDCA6815
:1028C0004968206801F068FC40212068EFE7226831
:1028D00001461046EBE7704770B504460068016991
:1028E0004FF00005C943890715D4C168C94389075A
:1028F00011D4E91E016101202077206880698007DA
:10290000204602D0FFF7E7FF04E000F0E9F8204698
:1029100000F078F9257720680169C943490717D481
:10292000C168C943490713D46FF004010161022053
:1029300020772068806910F4407F204602D0FFF79E
:10294000CAFF04E000F0CCF8204600F05BF92577E0
:1029500020680169C943090716D4C168C94309073A
:1029600012D46FF008010161042020772068C0694B
:102970008007204602D0FFF7AEFF04E000F0B0F879
:10298000204600F03FF9257720680169C943C90650
:1029900017D4C168C943C90613D46FF0100101618F
:1029A000082020772068C06910F4407F204602D0BC
:1029B000FFF791FF04E000F093F8204600F022F9C1
:1029C000257720680169C943C90708D1C168C9438F
:1029D000C90704D1891E0161204600F05FF9206813
:1029E0000169C943090609D4C168C943090605D468
:1029F0006FF0800101612046FFF741FE2068016908
:102A0000C943490609D4C168C943490605D46FF0D2
:102A100040010161204600F042F920680169C94384
:102A200089060BD4C168C943890607D46FF0200119
:102A300001612046BDE87040FFF722BE70BD000076
:102A400030B589B0002300930193029303931E4D88
:102A500004681E4A0221AC4212D1906940F0040081
:102A600090619069039100F0040004904FF41060AD
:102A7000CDE9000169461648FEF7DEFA09B030BD1F
:102A8000144DAC42FAD10493059306930793006862
:102A9000A842F3D1906940F00800906190690791D5
:102AA00000F0080008901320CDE9040104A90A48A9
:102AB000FEF7C2FA0948416821F4406141F0E06143
:102AC00041F400614160D9E7002C01400010024050
:102AD0000008014000040040000C014000000140DB
:102AE000704770B5044690F83C000D4601280AD0A6
:102AF000012084F83C0042B1042A18D0082A2AD0C8
:102B00000C2A4DD139E0022070BD206801F0A2FAF4
:102B10002068816941F0080181612068816921F0A4
:102B200004018161206881692A69114311E02068EC
:102B300001F0B8FA2068816941F400618161206880
:102B4000816921F480618161206881692A6941EA93
:102B50000221816124E0206801F0D0FA2068C16977
:102B600041F00801C1612068C16921F00401C1611F
:102B70002068C1692A69114311E0206801F0EAFA6E
:102B80002068C16941F40061C1612068C16921F414
:102B90008061C1612068C1692A6941EA0221C1617D
:102BA000002084F83C0070BD10B5040003D094F8F8
:102BB0003D0010B107E0012010BD002084F83C006A
:102BC000204600F01EF8022084F83D00211D2068F8
:102BD00001F0F2F9012084F8460084F83E0084F800
:102BE0003F0084F8400084F8410084F8420084F8F3
:102BF000430084F8440084F8450084F83D00002038
:102C000010BD70477047000010B50446022249B15C
:102C100004290ED0082913D094F84100012816D0B9
:102C2000012010BD94F83E000128F9D184F83E201F
:102C30000FE094F83F000128F2D184F83F2008E02B
:102C400094F840000128EBD184F8402001E084F89A
:102C500041200122206801F0DDF90E4920688842F8
:102C600003D1426C42F4004242642068884205D09D
:102C7000B0F1804F02D00849884204D1816801F048
:102C80000701062903D0016841F00101016000201D
:102C900010BD0000002C0140000400407047704748
:102CA00038B5044690F83E0020281CD181B17AB195
:102CB00094F83C00012816D0012084F83C002063E1
:102CC000204601F063FC002803D1216B012901D0CB
:102CD000012038BD21680A684A680092CA6842F03B
:102CE0001002CA6038BD022038BD01F021BD704716
:102CF000F8B5026804461068D168536910F00F0FE8
:102D00004FF0000553D003F0010601F490773743EC
:102D10005FD0C20705D0CA0503D5226C42F001027C
:102D20002264420705D5DA0703D0226C42F0020282
:102D30002264820705D5DA0703D0226C42F0040230
:102D40002264020707D501F02002324303D0226C2F
:102D500042F008022264226C002A34D0800604D596
:102D6000880602D5204601F059FB20684069216C95
:102D7000C0F38010090700D430B3204601F02DFBCA
:102D80002068416949061BD5416921F04001416134
:102D9000A06BA8B158494163A06BFDF7B9FF0028AB
:102DA00011D0A06B416B01B0BDE8F040084783062D
:102DB0000FD58B060DD52046BDE8F84001F02EBB9F
:102DC0002046FFF794FFF8BD2046FFF790FF2564EB
:102DD000F8BD266B2023012E52D1C60650D5CE0653
:102DE0004ED5106850680090506940062AD5A16BF6
:102DF000086840680004000CEAD0A68D8642E7D936
:102E0000E0858869202818D0D06820F48070D060D0
:102E10002068416921F0010141612068416921F088
:102E20004001416184F83E3025632068C16821F08B
:102E30001001C160A06BFDF747FFA08DE18D401A26
:102E400081B219E0A08DE18D401A81B2E08D002899
:102E5000BED00029BCD0D06820F49070D06020682B
:102E6000426922F00102426184F83E302563206805
:102E7000C26822F01002C2602046FFF736FFF8BD9C
:102E800005062BD50D0629D594F83D002128F6D14D
:102E9000A068B0F5805F01D12069B0B1206A411C03
:102EA0002162216800784860E08C401E0004000C1C
:102EB000E084E4D12068C16821F08001C16020680D
:102EC000C16841F04001C160F8BD206A0088C0F3CC
:102ED00008005060206A801C2062E5E74006F3D5B8
:102EE0004806F1D5D168204621F04001D16084F830
:102EF0003D3000F0BBF8F8BD0D43000870B504008C
:102F000004D094F83D00002510B106E0012070BD0A
:102F100084F83C50204600F023F8242084F83D003B
:102F20002068C16821F40051C160204601F0D2FA46
:102F30002068016921F4904101612068416921F014
:102F40002A0141612068C16841F40051C1602564D3
:102F5000202084F83D0084F83E00002070BD000071
:102F6000F0B585B0002400940194029403940646C1
:102F7000374F0368374902220320374DBB4226D121
:102F80008B6943F480438B618B6903F48043049322
:102F90008B6943F004038B618969039001F004019C
:102FA00004911102CDE9001269462846FEF744F863
:102FB0002815CDE90004694628460294FEF73CF83E
:102FC000002211462520FEF7CBFC25203BE0234FB5
:102FD000BB423AD1CB6943F40033CB61CB6903F4F4
:102FE000003304938B6943F004038B618969039078
:102FF00001F0040104910421CDE90012694628463C
:10300000FEF71AF80820CDE9000469462846029424
:10301000FEF712F8134D1248C5E900048020C5E9F7
:1030200002402C616C61AC612846EC61FDF766FFE3
:1030300008B1FDF7D9FBB5630022114626206E6268
:10304000FEF78EFC2620FEF77DFC05B0F0BD0000EB
:1030500000380140001002400008014000440040D8
:103060006C00024010050020704770477047FEE773
:1030700001684A69D24352050FD46FF480624A61F5
:10308000002140F8301F202242738173026942F010
:1030900004020261017301207047002070470000A4
:1030A0002DE9F84F0446C06A1E4693460D46216836
:1030B0000A6842F480620A60082807D0012805D017
:1030C00010F5803F02D0206B112804D120680168E0
:1030D00041F4807101604FF001195B4600224946BE
:1030E0002046009600F01AF94FF4007840B12068AD
:1030F0000068C00501D5C4F840800320BDE8F88F02
:103100002069DFF884A0B0F5804F0FD00620216839
:1031100000EAD51747F0F000086133465A460AF135
:103120000601204600F02EF958BB03E0E8B240F05B
:1031300001001CE02168E8B2086133465A46514656
:10314000204600F01FF9E0B92068416981690091CB
:10315000016841F4807101605B46002249462046C7
:10316000009600F0DBF80028C1D147F0F10021689B
:10317000086133465A465146204600F003F90028BC
:10318000BCD00120BAE7000002000100F8B50446F7
:10319000C06A1E460D461746082807D0012805D0EC
:1031A00010F5803F02D0206B122804D120680168FE
:1031B00041F480710160134600224FF00111204656
:1031C000009600F0ABF840B120680068C00502D559
:1031D0004FF4007020640320F8BD2069B0F5804FE3
:1031E0000ED00620216800EAD51040F0F0000861FA
:1031F00033463A460B49204600F0C4F878B902E05D
:1032000005F0FE0000E0E8B2216808610549334698
:103210003A46891F204600F0B5F80028DCD001208E
:10322000F8BD0000080001002DE9F84304460068DD
:103230000D46DDE9089701689846164641F480710D
:1032400001604B4600224FF001112046009700F02C
:1032500065F848B120680068C00502D54FF40070D9
:1032600020640320BDE8F883216805F0FE000861B2
:103270003B464A461549204600F084F888B9206844
:103280004169806900903A464946204600F0F8F8C6
:1032900048B1206C042804D12068016841F4007111
:1032A00001600120DEE7F5B2B8F1010F09D0216815
:1032B000300A08613A464946204600F0E1F8002805
:1032C000E7D1206805610020CCE700000200010082
:1032D00070B516460D4604460DE02046FFF7C8FEC1
:1032E00008B1012070BD681C05D0FDF78BFF801B65
:1032F000A84207D835B120684069C0434007ECD4E4
:10330000002070BD002044F8300F20216173A073AD
:10331000216941F0200121612073E2E72DE9F047A6
:103320001E4690460D460446C1F30747DDF820903F
:1033300008E0701C06D0FDF765FFA0EB0900B04265
:103340000FD876B12068012F18D0806925EA0000D7
:103350000004000C14D000214145EAD00020BDE853
:10336000F087002044F8300F20216173A073216999
:1033700041F02001216120730120F0E74069E5E779
:103380000121E9E72DE9F0479A4691460E460446A9
:1033900000254FF02008C1F3074725E02068406969
:1033A000C043400514D42068016841F400710160F5
:1033B00021686FF480604861256384F83D8084F85B
:1033C0003E50206C40F00400206484F83C501FE024
:1033D000B9F1FF3F08D0FDF715FFA0EB0A01494501
:1033E0000CD8B9F1000F09D02068012F13D08069E3
:1033F00026EA00000004000C0BD0CFE744F8305F51
:1034000084F80D80A573206940F0200020612573A9
:103410000120BDE8F0874069EAE72DE9F041002589
:1034200090460E460446202717E04069C043C00678
:103430000CD454F8301B6FF01000486144F8105958
:103440006777A577206A2062257717E0FDF7DAFE17
:10345000A0EB0800B04208D83EB120684169C943DA
:103460004906E2D40020BDE8F08144F8305F67737C
:10347000A573206940F02000206125730120F2E748
:1034800070B516460D4604460DE02046FFF7F0FDE8
:1034900008B1012070BD681C05D0FDF7B3FE801B8C
:1034A000A84207D835B120684069C0430006ECD473
:1034B000002070BD002044F8300F20216173A073FC
:1034C000216941F0200121612073E2E73EB500252A
:1034D0001148009501950F49029501608915816099
:1034E00001240473057545604FF460210461C161D6
:1034F000FDF7A6FA08B1FDF777F907200095CDE9A9
:10350000014069460448FDF78FF9002801D0FDF716
:103510006BF93EBD002401407C020020114808B533
:10352000416941F0010141614069002200F0010060
:10353000009011460B20FEF713FA0B20FEF702FA5B
:10354000002211460D20FEF70BFA0D20FEF7FAF9C6
:10355000002211461020FEF703FABDE808401020B3
:10356000FEF7F0B90010024070B586B0002429487B
:103570000094019402940394816941F010018161E7
:10358000816901F010010491816941F0200181619C
:10359000816901F020010491816941F00401816198
:1035A000816901F004010491816941F008018161A0
:1035B0008069194E00F008004FF400450490002285
:1035C00029463046FDF718FE43F2080000901348E4
:1035D000CDE9010469463046FDF72EFD0120009536
:1035E000CDE901040220039069463046FDF724FD31
:1035F000002211462820FEF7B3F92820FEF7A2F991
:10360000002211460920FEF7ABF90920FEF79AF9CE
:1036100006B070BD00100240000C01400000111007
:103620000D4810B50B4901600C49416000214FF471
:1036300080428160C0E9031241618161C161016220
:10364000FDF7E6FD002803D0BDE81040FDF7CCB83B
:1036500010BD000000540040F0020020A0860100D0
:103660001CB5002418480194164900940160611E9D
:1036700041604FF480718160FEF722FD08B1FDF7D3
:10368000B3F88DF804408DF805408DF8064001220E
:1036900001A90D48FEF7EAFD08B1FDF7A5F80120E4
:1036A0008DF800008DF801008DF8020002468DF8BB
:1036B000034069460448FEF777FD002801D0FDF776
:1036C00093F81CBD0028004044030020104810B5AA
:1036D0000E4901604FF48271416000218160C16038
:1036E0004FF400720161C0E905121822C0E90721F8
:1036F000416281620A21C162FEF72BFE002803D0DD
:10370000BDE81040FDF770B810BD0000003001406A
:103710005803002030B595B000240F9410941194F4
:10372000129413941C2168461494FCF79FFE2021E8
:1037300007A8FCF79BFE2C482A494FF4805502C08D
:10374000472132C0802140F81049C0E90541264890
:10375000FEF7F2FF08B1FDF747F80FA922480F95D1
:10376000FFF74EF808B1FDF73FF81F48FFF71CFAC6
:1037700008B1FDF739F8139413A91B481494FEF708
:10378000ABFF08B1FDF730F86020CDE900040294EA
:103790000394049405940022694613480694FFF7A5
:1037A000A0F908B1FDF720F80C2269460E48FFF792
:1037B00098F908B1FDF718F80794089409944FF4A4
:1037C00000500A94CDE90B4007A907480E94FEF774
:1037D00058FF08B1FDF708F80348FFF731F915B0B5
:1037E00030BD0000002C0140B003002030B587B090
:1037F00000241648009401940294039404944FF01A
:103800008041059402C047214FF4805532C0802189
:1038100040F8104981610D48FEF78EFF08B1FCF7B2
:10382000E3FF694609480095FEF7EAFF08B1FCF797
:10383000DBFF049404A905480594FEF74DFF00281A
:1038400001D0FCF7D1FF07B030BD0000F803002025
:1038500030B58DB000240794089409940A940B9411
:103860001C2168460C94FCF701FE264824494FF4BD
:10387000805502C0472132C0291140F8101980211B
:1038800081612048FEF758FF08B1FCF7ADFF07A99A
:103890001C480795FEF7B4FF08B1FCF7A5FF1948CF
:1038A000FFF782F908B1FCF79FFF0B940BA91548AD
:1038B0000C94FEF711FF08B1FCF796FF6020CDE9EC
:1038C00000040294002269460E480494FFF709F9A7
:1038D00008B1FCF789FF0C2269460A48FFF701F995
:1038E00008B1FCF781FF082269460648FFF7F9F89E
:1038F00008B1FCF779FF0348FFF7A2F80DB030BD1F
:1039000000040040400400200C4810B50A49016042
:103910004FF4E1314160002181600C22C160C0E9B7
:1039200004128161C161FFF7E9FA002803D0BDE804
:103930001040FCF759BF10BD00380140880400203A
:103940000C4810B50A4901604FF4E1314160002193
:1039500081600C22C160C0E904128161C161FFF77E
:10396000CDFA002803D0BDE81040FCF73DBF10BDE4
:1039700000440040CC040020FEE7FEE770B50024C0
:1039800004F1B000C0B200F09FFE002000F09CFEE9
:10399000102000F099FE0025002000F0A7FE6D1C0D
:1039A000EDB2802DF8D3641CE4B2082CE8D370BDCE
:1039B00010B5AE2000F088FE202000F085FE10201B
:1039C00000F082FEB02000F07FFEC82000F07CFEF8
:1039D000002000F079FE102000F076FE402000F07C
:1039E00073FEFF2000F070FEA12000F06DFEA62007
:1039F00000F06AFEA82000F067FE3F2000F064FEA1
:103A0000A42000F061FED32000F05EFE002000F054
:103A10005BFED52000F058FEF02000F055FED920C6
:103A200000F052FE222000F04FFEDA2000F04CFEA3
:103A3000122000F049FEDB2000F046FE202000F0BE
:103A400043FE8D2000F040FE142000F03DFEBDE856
:103A50001040AF2000F038BE10B50446B031C8B2F7
:103A600000F032FE102040EA141000F02DFE04F0A9
:103A70000F00BDE8104000F027BE2DE9F0411546CB
:103A80000E460746FFF7E8FF0024285D00F02EFEF3
:103A9000641CE4B2102CF8D3761CF1B23846FFF760
:103AA000DBFF1024285D00F021FE641CE4B2202C12
:103AB000F8D3BDE8F08100002DE9FF5F00269946AC
:103AC0009046834634460199FFF7C6FFDFF888A089
:103AD0003CE02038C0B2B9F1060F03D0B9F1100FA5
:103AE00034D10FE01D4900EB4000002501EB4007F9
:103AF000785D00F0FBFD6D1CEDB2062DF8D3641C63
:103B0000E4B223E000250AEB0017785D00F0EEFD3B
:103B10006D1CEDB2082DF8D30198401CC1B20BEB1F
:103B20000600C0B2FFF798FF0825785D00F0DEFDC3
:103B30006D1CEDB2102DF8D30836F6B2641C0BEBF9
:103B40000600E4B2C0B20199FFF786FF18F804003E
:103B50000028BED1BDE8FF9F904E00080D00002058
:103B60003038052B04D0062B05D0072B09D000E0F8
:103B700081B20846704700EB800001EB400030380E
:103B8000F6E76423584301EB810100EB4100104448
:103B9000A0F50470ECE7704710B5C1880278514376
:103BA000164A1160018942785143144A0C3211605F
:103BB000418982785143124A11608189C278514308
:103BC0000F4A08321160C18900794143101D01601C
:103BD00000210C48FFF718F80C210A48FFF714F8E9
:103BE00000210948FFF710F808210748FFF70CF8F3
:103BF000BDE810400C210448FFF706B8342C014002
:103C000034040040B0030020400400200648012195
:103C1000017041708170C17001710021C18001810A
:103C200041818181C181704754050020010901EB68
:103C3000810100F00F0000EB4100C0B2704770B589
:103C40000446FDF7DFFA05464FF47A7606E0FDF705
:103C5000D9FA401BB04201D9032070BD20684068EA
:103C60008006F4D52068416841F0100141600020D1
:103C700070BD000070B504460068416821F0100175
:103C80004160FDF7BFFA05464FF47A7607E000BFC2
:103C9000FDF7B8FA401BB04201D9032070BD20687F
:103CA00040688006F4D5002070BD00000148FEF792
:103CB000E7B90000440300200168086A496A89B234
:103CC00041EA00407047006881698AB2C1698BB2DD
:103CD000816989B28A4203D0C06961F31F4070478D
:103CE00043EA02407047F0B56424C1EBC1030927E1
:103CF000A500072603EB01130329B3FBF7F100F539
:103D0000FA60114401440AD2401EB0FBF4F201EB08
:103D10009001B0FBF5F0891A0844001D08E0B0FBE3
:103D2000F4F201EB9001B0FBF5F0891A0844801C15
:103D3000B0FBF6F106FB1100C0B2F0BD70B50D4648
:103D400006460024FFF77BFF48B93168280C08625B
:103D50003168A8B248623046FFF78CFF00B10124F9
:103D6000204670BD70B50D4606460024FFF767FF7C
:103D700048B93168280C88613168A8B2C8613046FA
:103D8000FFF778FF00B10124204670BD1CB500206C
:103D90000190FF200090022301AA47210948FDF766
:103DA000FBFABDF8040040BA01F014F800F0C6FFB9
:103DB0004FF03332044B00F0E7FDBDE81C4000F04B
:103DC000B1BD0000F00200203333F33FF0B5A1B0E5
:103DD0000E4604461D461746202119A8FCF746FB4F
:103DE00021466846FCF798FA2022002119A800F025
:103DF00013FC202119A8FCF739FB00241CE000BFAC
:103E00001DF804000DEB04014FF44862B038497806
:103E1000504300EB4111202219A8A1F5A05100F058
:103E2000FBFB200100EBD07006EB6000C0B219AACA
:103E30003946FFF722FEA41CB4EB450FE0DB21B0AE
:103E4000F0BD38B50B46009204460022802100F0F8
:103E500009F8002804D0606D40F020006065032060
:103E600038BD00002DE9F8431E46914688460446B9
:103E7000089DFDF7C7F9401B351AFDF7C3F9074642
:103E800025480068C0F3CB30684338E0701C37D059
:103E9000FDF7B8F9C01BA84203D215B1009860B372
:103EA0002CE02068416821F0E00141606068B0F5D5
:103EB000827F0BD1A068B0F5004F02D0B0F5806FC3
:103EC00004D12068016821F040010160A06AB0F5CA
:103ED000005F09D12068016821F400510160206869
:103EE000016841F400510160012084F85100002074
:103EF00084F850000320BDE8F8830025401E0090A0
:103F00002068816838EA010004D000214945BDD10C
:103F10000020F0E70121F9E7440200207047FDF797
:103F2000B9BC30B593B028216846FCF79FFA14213C
:103F30000AA8FCF79BFA002401210F941194052094
:103F400012940090CDE9024110944FF4803001901A
:103F500002250491CDE907504FF4E010099068461E
:103F6000FDF7FCFE08B172B6FEE70F20CDE90A05A9
:103F70004FF48060CDE90C4002210AA80E94FDF7B1
:103F800001FE08B172B6FEE703200F904FF4807077
:103F900010904FF4404011900FA8FDF77DFD0028D0
:103FA00001D072B6FEE713B030BD70470148FEF78E
:103FB00093BC0000F803002070B50268134B144C4A
:103FC0004FF08046984203D0B04201D0A04203D1C6
:103FD00022F070054A682A43984203D0B04201D0CB
:103FE000A04203D122F44074CA6822434C6922F0F3
:103FF0008002224302608A68C2620A688262984232
:1040000001D1096901630121416170BD002C0140AA
:104010000004004010B501F01F030121046A99401B
:104020008C430462016A9A401143016210BD10B5CD
:10403000846842EA032224F47F440A4322438260D4
:1040400010BD826822F070020A4342F007018160CD
:104050007047000030B5026A22F001020262026A73
:104060004368846924F073050C682C4322F0020530
:104070008A682A430A4DA8420BD122F00805CA6873
:1040800023F440732A434D6922F004021D438B69D7
:104090002B434360846149684163026230BD000084
:1040A000002C014030B5026A22F010020262026A5E
:1040B000436884690D6824F4E64444EA05248D6865
:1040C00022F0200242EA05120B4DA8420ED1CD6823
:1040D00022F0800242EA05124D6923F4406343EA6C
:1040E00085038D6922F0400243EA850343608461C1
:1040F00049688163026230BD002C014030B5026A1C
:1041000022F480720262036A4268C46923F4007375
:1041100024F073050C682C438D6843EA05230C4D8D
:10412000A8420ED1CD6823F4006343EA05234D690C
:1041300022F4405242EA05128D6923F4806342EA78
:1041400005124260C4614968C163036230BD00006A
:10415000002C014030B5026A22F480520262046AE7
:104160004268C3690D6823F4E64343EA05238D687A
:1041700024F4005444EA0534064DA84204D14D69A4
:1041800022F4804242EA85124260C36149680164B8
:10419000046230BD002C014010B5036A046A24F0AB
:1041A00001040462846924F0F00444EA021423F058
:1041B0000A020A438461026210BD10B5036A23F04B
:1041C000100303628369046A23F4704343EA0232F2
:1041D00024F0A00343EA01118261016210BD0000D6
:1041E00030B58DB0044634216846FCF73FF93222E1
:1041F00021466846FCF7D3F86846FCF7B1F8801E04
:10420000C3B24048404C03709DF8010031280DD0E6
:10421000322823D19DF802004FF6FF75303805286B
:104220001CD2DFE800F0333F4B5763009DF80220BB
:1042300000200121302A0CD0312A13D0322A19D083
:10424000332A0BD19DF80410312907D120706070FA
:1042500018E09DF80420302A02D021700DB030BD46
:104260002070FBE79DF80420302A01D06170F5E74B
:104270006070F3E79DF80420302A03D0A170E1704C
:104280002171EBE7A070E0702071E7E79DF8062050
:104290009DF805109DF80400FFF762FC05EA001088
:1042A000E080DBE79DF806209DF805109DF80400EE
:1042B000FFF756FC05EA00102081CFE79DF80620A5
:1042C0009DF805109DF80400FFF74AFC05EA001070
:1042D0006081C3E79DF806209DF805109DF8040055
:1042E000FFF73EFC05EA0010A081B7E79DF8062025
:1042F0009DF805109DF80400FFF732FC05EA001058
:10430000E081ABE7350200205405002010B5406A7B
:104310000021C185C184FEF7EAFC10BD70B5446A76
:104320002068406994F83D10C0F3C0100025212991
:1043300004D118B1E584204600F067F82068406990
:1043400094F83E10C0F38010222904D118B1E585FD
:10435000204600F042F8206C40F010002064204617
:10436000FEF7C5FC70BD10B50146406A09680968D2
:1043700089061BD40021C1850168CA6822F48072B5
:10438000CA6001684A6922F001024A6101684A690B
:1043900022F040024A61202180F83E10016B012981
:1043A00004D10168CA6822F01002CA60016B0129B9
:1043B00002D0FEF759FE10BD818DFEF796FC10BDB0
:1043C00010B5406A016B012902D0FEF74EFE10BD08
:1043D000818D4908FEF789FC10BD0168CA6822F486
:1043E0009072CA6001684A6922F001024A61016B59
:1043F000012904D10168CA6822F01002CA60202194
:1044000080F83E100021016370470168CA6822F0FD
:10441000C002CA60202180F83D10704708B590F8AE
:104420003E10222901D0022008BD82684FF480533B
:104430009A4201D1016921B1816A9A421BD04AB1E5
:104440000AE00268816A5268C2F308020A80816A3F
:10445000891C08E0026972B10268526802F07F02AA
:104460000A70816A491C8162C18D491E0904090CC8
:10447000C18503D019E002685268F1E70168CA6893
:1044800022F02002CA600168CA6822F48072CA6001
:1044900001684A6922F001024A61202180F83E1039
:1044A000016B012903D0FEF7DFFD002008BD0021CC
:1044B00001630168CA6822F01002CA6001680A68D4
:1044C000D20602D50A6849680091818DFEF70DFC7D
:1044D000EBE7000070B5044600680169E26821F46A
:1044E0004051114301612169A06808436169084393
:1044F0002168CA6841F20C639A430243CA6020688B
:104500004169A26921F44071114341611E4920684B
:10451000884202D1FDF7DCFB01E0FDF7C9FB00EBAF
:10452000C00101EB0012606864218000B2FBF0F36F
:10453000B3FBF1F36FF018067343B2FBF0F5B2FB77
:10454000F0F605EB8305322303EB0515B5FBF1F51A
:10455000B6FBF1F605F0F00505EB0615B2FBF0F63B
:10456000B2FBF0F0B0FBF1F06FF01802504306EB35
:10457000800003EB0010B0FBF1F0216800F00F00A9
:104580002844886070BD00000038014038B5816261
:1045900082850025134604460564222084F83E00E7
:1045A000A26B13489062A26B1248D062A26B1248B1
:1045B0001063A06B0A4645632168A06B091DFCF7D8
:1045C000CBFC206801684168009184F83C50C168C8
:1045D00041F48071C1602068416941F0010141618D
:1045E0002068416941F040014161002038BD000070
:1045F00067430008C14300081D4300080148FEF757
:1046000077BB0000880400200148FEF771BB000062
:10461000CC040020FEE700002DE9F041DFF85480D3
:1046200015460C4606464FF40047002239464046E0
:10463000FCF7E2FD032000F01FF8C4F3074000F090
:104640001BF8C4F3072000F017F8E0B200F014F8EC
:10465000002405E0FF2000F00FF83055641CA4B2E0
:10466000AC42F7D339464046BDE8F0410122FCF7A1
:10467000C3BD0000000C014001B582B000208DF8E0
:1046800004000A200090012301AA02A90448FDF7B2
:10469000F1FE10B1FF208DF804009DF804000EBD5E
:1046A000580300201CB501238DF80400FF20009062
:1046B00001AA46210348FCF791FF6420FCF784FC23
:1046C0001CBD0000F002002001B584B0012104A847
:1046D00064228DE807000B46002278210248FDF78E
:1046E00013F805B000BD0000F002002001B584B051
:1046F000012104A864228DE807000B46402278219E
:104700000248FDF701F805B000BD0000F0020020EE
:104710000907090E002804DB00F1E02080F80014EE
:10472000704700F00F0000F1E02080F8141D704782
:1047300010B500680D49884216D132220C490D4847
:10474000FEF7AEFA0C480068016821F00401016030
:104750000748FFF745FD32210548FBF765FEBDE838
:1047600010400648FFF718BA10BD00000044004092
:1047700048020020CC040020100500205405002031
:1047800070B500F059FA42F21071B0FBF1F2B0FBD3
:10479000F1F301FB13004FF47A71B0FBF1F3B0FBBE
:1047A000F1F401FB14006421B0FBF1F4B0FBF1F56E
:1047B00001FB15000A21B0FBF1F5B0FBF1F601FB9E
:1047C00016000649303230330A7030344B703035C1
:1047D0008C70CD703030087170BD00000800002072
:1047E0000EB5FDF75FF8FFF79CFBFEF7BDFEFEF789
:1047F00095FEFEF76BFEFEF733FFFEF767FFFEF751
:1048000089FFFFF725F8FFF77FF8FFF799F8FEF724
:10481000EDFFFEF705FF00F07DF8FFF7F7F9322214
:104820002A492B48FEF73CFA2A480068016821F023
:1048300004010160284C1120FFF734FFFFF7A6FAAE
:104840000546FBF7D3FFFBF78FFF628823A168467D
:10485000FBF7DEFC10236A4603210020FFF72CF94A
:104860002078012814D00323062200211FA000BFB6
:10487000FFF7ACFA607801281BD0032306223C2105
:104880001CA000BFFFF7A2FA6420FCF79DFBD2E753
:10489000284600F07FFA194900EB800040000860CC
:1048A00000211748FEF7B0F903230622002115A0C6
:1048B000DEE7124960880C3108600C211048FEF7D1
:1048C000A3F9032306223C2110A0DBE748020020C5
:1048D000CC0400201005002000000020414443319A
:1048E0003A2020202564202000000000D7D4B6AF55
:1048F000B9D80000B5F7BDDAB9D80000342C0140B2
:10490000B0030020D7D4B6AFBFAA0000B5F7BDDA18
:10491000BFAA000010B5FFF74BF8BDE81040FFF745
:104920002DB8000021F00042A2F16052B2F5801FC4
:1049300001F0004328BFD2F17F6C0BD95FEA001C65
:1049400043EAC20242EB507018BF704728BF20F004
:1049500001007047B2F5801FBCBF184670474FEA90
:10496000410C1CF5001F02D2084600F08CBA70B54D
:1049700000F08FF900000089FFF7F6BF4FF000400C
:10498000A0F58000704700002DE9C04130B4DFF889
:10499000A0C23CEA111418BF3CEA131400F0EC80EA
:1049A00081EA03051CEA111444EAD57418BF1CEA15
:1049B000131500F0C780A4EB05044FF0004545EA4D
:1049C000C12145EAC32341EA505143EA525304F15D
:1049D0007F74994204F500344FEAC0204FEAC222A6
:1049E00008BF904200F09C804FEA13650FF240161A
:1049F000765D4FEA134506FB05F7C7F1807706FBA6
:104A000007F74FEAD737A7FB03687642C8F5803827
:104A1000A7FB06CE38BFA8F1010807FB08E64FF058
:104A2000000EA6FB028CE6FB03CEDCF1000CCEF1FF
:104A3000004E38BFAEF1010EA6FB0C584FF0000738
:104A40004FF00005E6FB0E87A1FB08C6A0FB07CED2
:104A500016EB0E0645F10005E1FB076515F1E04E8A
:104A60007EBFA4F580345FEA46066D4116F18007EB
:104A700045F100054FEA17274FEA066647EA056742
:104A8000A6F1DE46B6F1805F4FEA15251FD93846FC
:104A900024F0010C05EBC471BCF1FE6F01EB0C11AD
:104AA00002D8F0BCBDE8008124425CBF01F5801E45
:104AB0009EEAC47F02D4F0BCBDE80081244238D411
:104AC000F0BCA1F1C041BDE8004100F030B94FEAAF
:104AD000D22242EA43524FEAD323A7FB02864FEA8F
:104AE000D02040EA415007FB03661EEA0E0F4FEA52
:104AF000D12105FB026658BFA6EB0056B6EB005667
:104B00004FEA520E4EEAC37E18EB0E0E56EB530ED2
:104B1000BDD518EB02085E417F1C55F10005B6E7D4
:104B20004FF480154FF000074FF000064FF00008DB
:104B3000ADE7F0BC4FF0000001F1C04101F00041D1
:104B4000BDE8008111EA0C1F0CEA131500D00CE03F
:104B500013EA0C1F00F025804FF00000F0BC81EA42
:104B6000030101F00041BDE80081F0BCBDE8004157
:104B700081EA030100F0DBB8F0BCBDE8004170B58C
:104B800000F087F8097EFC3E00F007B881EA0301D7
:104B90004FF0000001F00041704781EA030100F08E
:104BA000C6B8F0BCBDE800414FF000002149704795
:104BB000FFFDFBF9F7F5F4F2F0EEEDEBE9E8E6E4E2
:104BC000E3E1E0DEDDDBDAD8D7D5D4D3D1D0CFCD69
:104BD000CCCBCAC8C7C6C5C4C2C1C0BFBEBDBCBBA2
:104BE000BAB9B8B7B6B5B4B3B2B1B0AFAEADACAB9D
:104BF000AAA9A8A8A7A6A5A4A3A3A2A1A09F9F9E77
:104C00009D9C9C9B9A999998979796959594939328
:104C1000929191908F8F8E8E8D8C8C8B8B8A8989BF
:104C20008888878786858584848383828281818042
:104C30000000FF070000F87F4FEA1153A3F58063DF
:104C4000D3F11E03A8BFD3F1200C08DB4FF00042C4
:104C500042EAC12252EA505232FA03F07047094246
:104C60000BD4102BC4BF0020704703F5787CBCF137
:104C7000FF3F05D04FF0FF3070474FF00000704706
:104C800070B500F006F800BF4992248000207047FC
:104C9000F0E70EF1020E2EF0030E5EF8046B3642C2
:104CA00005D4012A43EB030515F5001F12D801288E
:104CB00041EB010C1CF5001F0CD80ED14FEAD17C42
:104CC00015F5001F0CEB4C0C0CF1020C08BF4CEB63
:104CD000D37C04E04FF0080C01E04FEAD37C0CEBEE
:104CE0004C0526FA05F606F00706B6F1040C06D2C6
:104CF0000EEB860CBDE870404CF0010C6047DFE81D
:104D00000CF0090B02024FF000414FF00000A1F53A
:104D1000002170BD19461046012851EB010418BF4F
:104D2000D4F5001484BF002001F0004170BD0808D4
:104D3000A0F500114FEA31017047000043004FEA2F
:104D4000D30C4FEA3C0C43401FBF40070CF16051AD
:104D500013F0FE4F70471CF0006F03D100200CF0E1
:104D6000004170470CF0004343EA507010B540EA30
:104D7000CC0000F042F800BF000000924FEA0001B2
:104D8000FFF7D5BF4FF000414FF00000A1F5002123
:104D900070470000C10DD1F19E0206DB4FEA0023EF
:104DA00043F0004323FA02F07047004207D54FEA70
:104DB0004001B1F1FE4F02D24FF00000704710B534
:104DC00000F01BF849922480002070476FEA200011
:104DD00070470000B0FA80F310FA03F2C3F19D03AC
:104DE0000AD0D90501EB1220530638BF704700F1F5
:104DF000010008BF20F0010070470EF1020E2EF0F6
:104E0000030E5EF8044B244204D44FEA4102B2F18F
:104E10007F4F11D84FEA4003B3F17F4F0CD80ED12A
:104E20004FEAD07CB2F17F4F0CEB4C0C0CF1020C32
:104E300008BF4CEBD17C04E04FF0080C01E04FEAD6
:104E4000D17C0CEB4C0324FA03F404F00704B4F116
:104E5000040C06D20EEB840CBDE810404CF0010CA3
:104E60006047DFE80CF0070802024FF00040A0F5B1
:104E7000800010BD0846420018BFD2F1807288BF82
:104E800000F0004010BDFF2141EAD050C00570473E
:104E90000000000000000000000000000000000012
:104EA000000000F8000000000000003330000000A7
:104EB00000100C06100C06000000000000000000AE
:104EC00040C07840C0784000043F04043F04040020
:104ED000007088FC08300000001820FF211E000030
:104EE000F008F000E018000000211C031E211E0045
:104EF00000F00888700000001E21232419272110CB
:104F000010160E000000000000000000000000006D
:104F1000000000E018040200000000071820400014
:104F200000020418E0000000004020180700000004
:104F3000404080F0804040000202010F0102020068
:104F4000000000F0000000000101011F010101004C
:104F5000000000000000000080B0700000000000B1
:104F6000000000000000000000010101010101013A
:104F700000000000000000000030300000000000D1
:104F800000000000806018040060180601000000A6
:104F900000E010080810E000000F102020100F00A3
:104FA000001010F8000000000020203F202000002A
:104FB0000070080808887000003028242221300082
:104FC00000300888884830000018202020110E008A
:104FD0000000C02010F8000000070424243F240033
:104FE00000F80888880808000019212020110E0008
:104FF00000E0108888180000000F112020110E001A
:1050000000380808C83808000000003F0000000011
:105010000070880808887000001C222121221C00D2
:1050200000E010080810E0000000312222110F00FB
:10503000000000C0C0000000000000303000000090
:105040000000008000000000000080600000000000
:105050000000804020100800000102040810200019
:105060004040404040404000040404040404040064
:1050700000081020408000000020100804020100F9
:10508000007048080808F0000000003036010000F9
:10509000C030C828E810E0000718272423140B00AC
:1050A0000000C038E0000000203C23020227382026
:1050B00008F8888888700000203F202020110E000A
:1050C000C030080808083800071820202010080001
:1050D00008F808080810E000203F202020100F00EA
:1050E00008F88888E8081000203F202023201800B6
:1050F00008F88888E8081000203F2000030000001E
:10510000C03008080838000007182020221E0200BE
:1051100008F808000008F808203F210101213F207D
:10512000000808F8080800000020203F20200000A8
:1051300000000808F8080800C08080807F00000098
:1051400008F888C028180800203F200126382000D1
:1051500008F8080000000000203F20202020300038
:1051600008F8F800F8F80800203F003F003F200052
:1051700008F830C00008F808203F200007183F005A
:10518000E01008080810E0000F10202020100F0089
:1051900008F808080808F000203F2101010100007C
:1051A000E01008080810E0000F18242438504F00C1
:1051B00008F8888888887000203F2000030C302081
:1051C00000708808080838000038202121221C00BF
:1051D000180808F8080818000000203F2000000008
:1051E00008F808000008F808001F202020201F00F1
:1051F0000878880000C83808000007380E01000051
:10520000F80800F80008F800033C0700073C03001A
:10521000081868808068180820302C03032C302080
:105220000838C800C83808000000203F20000000EF
:1052300010080808C8380800203826212020180047
:10524000000000FE020202000000007F404040001B
:10525000000C30C000000000000000010638C00053
:1052600000020202FE000000004040407F000000FB
:105270000000040202020400000000000000000020
:10528000000000000000000080808080808080801E
:105290000002020400000000000000000000000006
:1052A00000008080808000000019242222223F20FC
:1052B00008F8008080000000003F112020110E003F
:1052C0000000008080800000000E112020201100CE
:1052D000000000808088F800000E112020103F2080
:1052E0000000808080800000001F22222222130004
:1052F000008080F0888888180020203F202000004F
:105300000000808080808000006B94949493600003
:1053100008F8008080800000203F210000203F200E
:1053200000809898000000000020203F202000000E
:10533000000000809898000000C08080807F0000FE
:1053400008F8000080808000203F24022D302000DB
:10535000000808F8000000000020203F2020000086
:105360008080808080808000203F20003F20003FA0
:105370008080008080800000203F210000203F20AE
:105380000000808080800000001F202020201F005F
:10539000808000808000000080FFA12020110E008E
:1053A0000000008080808000000E112020A0FF807F
:1053B000808080008080800020203F21200001002C
:1053C0000000808080808000003324242424190081
:1053D000008080E0808000000000001F202000008E
:1053E0008080000000808000001F202020103F20CF
:1053F000808080000080808000010E30080601005F
:1054000080800080008080800F300C030C300F0003
:1054100000808000808080000020312E0E3120002E
:10542000808080000080808080818E70180601005E
:1054300000808080808080000021302C222130007C
:1054400000000000807C020200000000003F40409D
:1054500000000000FF00000000000000FF0000004E
:105460000002027C800000000040403F000000007D
:105470000006010102020404000000000000000018
:1054800000000000000000000102030406070809F4
:105490000000000001020304B854000800000020CE
:1054A00048020000280100087C560008480200203D
:1054B00080090000840100080116422F1A0702111A
:1054C0001B147F021116242A7F2A12166264081305
:1054D00023263649552250430503341C22411C41E2
:1054E000221C2A15083E08141A0806320823A06058
:1054F0002A0801211A600B11162010080402263E0A
:105500005149453E1C427F400515615149461621CF
:1055100041454B31161814127F1016274545453961
:10552000163C4A4949301C017109621636494949FD
:105530003626064949291E4336362A56062B0814B4
:10554000782A1401297E131408160201510906163F
:10555000324959513E167C1211127C3A7F3C163E5C
:10556000414141221A7F053A1C1212411E7F09094E
:105570000901181449497A1A7FA11A7F421A7F4EED
:105580001E2040413F0112295B1B7F400111167F05
:10559000020C027F3E7F0408107F483A3E3C1A0608
:1055A0000C1C51215E0C141929461A46541231164E
:1055B00001017F01011A3F35123F1E1F2040201FAD
:1055C0000C1A380C166314081463160708700807C1
:1055D00019EF234543198B211B552A0219781A41CB
:1055E0007D16040201020429712240290B111620A4
:1055F00054545478167F484444382E384444442048
:105600000613487F1A3818121816087E0901021D61
:1056100018A4A4A4E425080404781B447D3B1D4081
:1056200080847D5F341028441B417F121C7C041849
:105630001E3A7C242948123816FC242424181A18EF
:10564000053AFC1812081A4854122016043F444028
:1056500020163C4040207C1A1CC01A1C0C14304000
:105660003C2B44284F161CA0A0A07C3F4464544C03
:0C56700044140131320182101324F400B4
:04000005080000ED02
:00000001FF
